:1000000078969000877900E993F580117A09E99351
:10001000F580116D09E993F580116D09E993F5807B
:10002000116D09E993F580116D09E993F580116D62
:1000300009E993F580116D09E993F580117A09E9D1
:1000400093F580116D09E993F580116D09E993F538
:1000500080116D09E993F580116D09E993F580111F
:100060006D09E993F580116D09D89C01007D037E2F
:10007000FA7FC8DFFEDEFADDF6227D1E7EFA7FC83B
:10008000DFFEDEFADDF62224440444044404448105
:0600900082808280828064
:00000001FF
