:100000007590FE30A03830A13A30A23C30A33E7546
:1000100090FD30A03D30A13F30A24130A343759008
:10002000FB30A04230A14430A24630A3487590F77F
:1000300030A04730A14930A24B30A34D010075805C
:1000400000010075800101007580020100758003C8
:1000500001007580040100758005010075800601AE
:100060000075800701007580080100758009010096
:1000700075800A010075800B010075800C01007508
:0E008000800D010075800E010075800F0100DB
:00000001FF
